:100000000C9462000C948A000C948A000C948A0070
:100010000C948A000C948A000C948A000C948A0038
:100020000C948A000C948A000C948A000C948A0028
:100030000C948A000C948A000C948A000C948A0018
:100040000C94F4020C948A000C948A000C948A009C
:100050000C948A000C948A000C948A000C948A00F8
:100060000C943E030C948A0000000000230026003C
:10007000290000000008000201000003040700003E
:1000800000000000000000000000250028002B00F8
:1000900000000000240027002A00040404040404D3
:1000A0000404020202020202030303030303010227
:1000B00004081020408001020408102001020408F6
:1000C0001020DB0411241FBECFEFD8E0DEBFCDBF70
:1000D00011E0A0E0B1E0E8E0FEE002C005900D9282
:1000E000A231B107D9F721E0A2E1B1E001C01D9230
:1000F000A93DB207E1F710E0C2E6D0E004C02197C5
:10010000FE010E94FC06C136D107C9F70E945D04BA
:100110000C9402070C940000CF93DF9390E0FC0155
:10012000E255FF4F249186569F4FFC01849188230E
:10013000C1F090E0880F991FFC01E057FF4FC59177
:10014000D491FC01EA57FF4FA591B4919FB7F89461
:100150003881822F809583238883EC91E22BEC9366
:100160009FBFDF91CF910895E091CB01F091CC0139
:10017000309729F01092C8011092C7010994089590
:100180000895833081F028F4813099F08230A9F00D
:1001900008958730A9F08830C9F08430B1F4809197
:1001A00080008F7D03C0809180008F7780938000D6
:1001B000089584B58F7784BD089584B58F7DFBCF76
:1001C0008091B0008F778093B00008958091B00047
:1001D0008F7DF9CFCF93DF93282F30E0F901EE58D0
:1001E000FF4F8491F901E255FF4FD491F901E65692
:1001F000FF4FC491CC23A1F081110E94C100EC2FCC
:10020000F0E0EE0FFF1FE859FF4FA591B491EC917C
:10021000ED2381E090E009F480E0DF91CF91089533
:1002200080E090E0FACF1F93CF93DF93282F30E048
:10023000F901EE58FF4F8491F901E255FF4FD49137
:10024000F901E656FF4FC491CC23A9F0162F811176
:100250000E94C100EC2FF0E0EE0FFF1FEA57FF4FA6
:10026000A591B4918FB7F894EC91111108C0D09575
:10027000DE23DC938FBFDF91CF911F910895DE2B9A
:10028000F8CF20917001260F3327331F213231051B
:10029000ECF420919401FC0190E080E0243069F0BE
:1002A00082E00895A09170012191AC01405B5E4F06
:1002B000A40FB52FB11D2C930196861798F380914A
:1002C0007001680F6093700180E0089581E00895E7
:1002D0001092940181E0809396011092950161E063
:1002E00082E10E94130161E083E10E941301E9EBC6
:1002F000F0E080818E7F808380818D7F808388E4A1
:100300008093B80085E48093BC0008950895E0913F
:10031000CA018091C901E81730F4F0E0E65DFE4FB4
:10032000808190E008958FEF9FEF08959091CA012A
:100330008091C9012FEF3FEF981748F4E92FF0E0C3
:10034000E65DFE4F208130E09F5F9093CA01C901B6
:1003500008958091C9019091CA01891B990B089554
:10036000CF93DF93CB01EA01642F0E944101CE01BC
:10037000DF91CF910895CF93DF931F92CDB7DEB772
:10038000698361E0CE0101960E94410181E090E025
:100390000F90DF91CF91089590E080E00895CF9382
:1003A000DF9380E480937C0080917A008064809366
:1003B0007A0080917A0086FDFCCF80917800C09110
:1003C0007900DC2FC82F80912801909129018C178A
:1003D0009D0771F185E08C9FB0018D9F700D1124F8
:1003E000072E000C880B990B0E94030620E030E0DA
:1003F00040E85AE30E948F069B01AC0160E070E088
:1004000080EA90E40E94590520E030E040E85FE394
:100410000E94EC0420E030EE4BE256E40E948F068E
:100420000E94CB0560932001D0932901C09328013D
:1004300084E00E94EA0020911E0130911F01821782
:10044000930739F021E42093210190931F018093B9
:100450001E0185E00E94EA0020911C0130911D01DF
:100460008217930739F023E42093220190931D0112
:1004700080931C0186E00E94EA0020911A013091CD
:100480001B018217930759F085E480932301809123
:100490001C0190911D0190931B0180931A0188E02B
:1004A0000E94EA00209118013091190182179307E8
:1004B00039F027E4209325019093190180931801C6
:1004C00089E00E94EA0020911601309117018217FD
:1004D000930739F029E42093260190931701809324
:1004E00016018AE00E94EA00209114013091150162
:1004F0008217930739F02BE420932701909315017D
:10050000809314018BE00E94EA0020911201309147
:1005100013018217930739F02DE42093280190935B
:1005200013018093120149E050E060E271E08DEC2C
:1005300091E0DF91CF910C94B001CF93DF9385EDE3
:100540008093BC0080914C0190914D01A0914E018F
:10055000B0914F010796A11DB11D23E0B695A79557
:10056000979587952A95D1F72091BC0024FD03C06B
:100570001092940136C040914C0150914D01609110
:100580004E0170914F01452B462B472B69F3009785
:10059000A105B10541F025E32A95F1F70000019787
:1005A000A109B109E1CF80914B0191E090934A01FB
:1005B0008823B9F0C091B800D091BA008091BC00F6
:1005C0008A7B8093BC0060E082E10E94130160E0BE
:1005D00083E10E9413010E946801D093BA00C09386
:1005E000B800DF91CF9108951F920F920FB60F922E
:1005F00011242F933F938F939F93AF93BF93809139
:10060000BF019091C001A091C101B091C201309190
:10061000BE0123E0230F2D3758F50196A11DB11D12
:100620002093BE018093BF019093C001A093C101AC
:10063000B093C2018091BA019091BB01A091BC011D
:10064000B091BD010196A11DB11D8093BA01909397
:10065000BB01A093BC01B093BD01BF91AF919F912D
:100660008F913F912F910F900FBE0F901F90189573
:1006700026E8230F0296A11DB11DD2CF1F920F9223
:100680000FB60F9211242F933F934F935F936F9365
:100690007F938F939F93AF93BF93EF93FF9380913B
:1006A000B900887F803609F44AC0F0F5883209F431
:1006B000A7C018F5803109F49BC0B8F4882309F469
:1006C000F9C0883009F494C0FF91EF91BF91AF91C8
:1006D0009F918F917F916F915F914F913F912F915A
:1006E0000F900FBE0F901F901895883109F488C0A5
:1006F000803251F78093930114C0803409F49DC077
:1007000040F48033B9F38833F9F68093930185EC94
:10071000B0C0803509F485C0883509F496C08834A6
:1007200099F60E949D02D0CF883909F48CC038F523
:10073000883729F050F4883611F0803729F683E0A5
:10074000809394011092920157C0883809F47BC0BD
:10075000803919F0803809F0B7CF8091920180324A
:1007600008F071C0E091920181E08E0F80939201B8
:100770008091BB00F0E0EE58FE4F80833DC0803B8F
:1007800039F0E0F4803A09F479C0883A09F09CCF56
:1007900084E0809394011092710110927001E091B5
:1007A000C501F091C60109958091700181110FC0BA
:1007B00081E0809370011092500109C0803C09F4DF
:1007C000A6CF883C09F4A3CF883B09F07DCFE09108
:1007D000710181E08E0F80937101F0E0E05BFE4FCC
:1007E00080818093BB00909171018091700129C03C
:1007F0008091B9018093BB0085EC8093BC0064CFED
:100800009091B8018091B701981758F5E091B8011F
:1008100081E08E0F8093B801F0E0E956FE4F8081B1
:10082000E9CFE091B80181E08E0F8093B80180910B
:10083000BB00F0E0E956FE4F80839091B8018091B3
:10084000B7019817C8F285E8D8CFE091B80181E0E8
:100850008E0F8093B8018091BB00F0E0E956FE4F07
:1008600080838091960181115CCF81E08093950116
:1008700084EA8093BC001092940126CF85EC80938B
:10088000BC001092940180919201803230F4E0918A
:100890009201F0E0EE58FE4F10826091920170E0FC
:1008A000E091C301F091C40182E791E009951092B3
:1008B00092010ACF1092930134CF789484B582606C
:1008C00084BD84B5816084BD85B5826085BD85B5F4
:1008D000816085BD80916E00816080936E00109272
:1008E00081008091810082608093810080918100ED
:1008F000816080938100809180008160809380007E
:100900008091B10084608093B1008091B0008160DB
:100910008093B00080917A00846080937A00809107
:100920007A00826080937A0080917A00816080935F
:100930007A0080917A00806880937A001092C100DA
:100940001092CA011092C9011092C8011092C701F9
:100950000E94680184EB90E09093C6018093C501EA
:1009600080EC90E09093C4018093C30180E1809378
:10097000BA0084E00E948C0085E00E948C0086E032
:100980000E948C0088E00E948C0089E00E948C000C
:100990008AE00E948C008BE00E948C008FEC91E03A
:1009A0009093CC018093CB01C0E0D0E02097F1F38D
:1009B0000E940000FBCFEDECF1E01382128288EE82
:1009C00093E0A0E0B0E084839583A683B78384E0BE
:1009D00091E09183808308955058BB27AA270E94F5
:1009E00004050C9455060E94470638F00E944E06F6
:1009F00020F039F49F3F19F426F40C9444060EF4C9
:100A0000E095E7FB0C943E06E92F0E94660658F33A
:100A1000BA17620773078407950720F079F4A6F5E3
:100A20000C9488060EF4E0950B2EBA2FA02D0B0126
:100A3000B90190010C01CA01A0011124FF27591B23
:100A400099F0593F50F4503E68F11A16F040A22F29
:100A5000232F342F4427585FF3CF4695379527959A
:100A6000A795F0405395C9F77EF41F16BA0B620B99
:100A7000730B840BBAF09150A1F0FF0FBB1F661FE0
:100A8000771F881FC2F70EC0BA0F621F731F841F23
:100A900048F4879577956795B795F7959E3F08F049
:100AA000B0CF9395880F08F09927EE0F979587950B
:100AB00008950E946D050C9455060E944E0658F04C
:100AC0000E94470640F029F45F3F29F00C943E064F
:100AD00051110C9489060C9444060E94660668F332
:100AE0009923B1F3552391F3951B550BBB27AA27E7
:100AF00062177307840738F09F5F5F4F220F331F21
:100B0000441FAA1FA9F335D00E2E3AF0E0E832D0E8
:100B100091505040E695001CCAF72BD0FE2F29D0EB
:100B2000660F771F881FBB1F261737074807AB07BD
:100B3000B0E809F0BB0B802DBF01FF2793585F4F32
:100B40003AF09E3F510578F00C943E060C948906CD
:100B50005F3FE4F3983ED4F3869577956795B79514
:100B6000F7959F5FC9F7880F911D9695879597F91F
:100B70000895E1E0660F771F881FBB1F6217730798
:100B80008407BA0720F0621B730B840BBA0BEE1FAD
:100B900088F7E09508950E94D2056894B1110C94ED
:100BA000890608950E946E0688F09F5798F0B92F25
:100BB0009927B751B0F0E1F0660F771F881F991F92
:100BC0001AF0BA95C9F714C0B13091F00E948806A6
:100BD000B1E008950C948806672F782F8827B85FB6
:100BE00039F0B93FCCF3869577956795B395D9F7EA
:100BF0003EF490958095709561957F4F8F4F9F4FF4
:100C00000895E89409C097FB3EF4909580957095FF
:100C100061957F4F8F4F9F4F9923A9F0F92F96E948
:100C2000BB279395F695879577956795B795F111BD
:100C3000F8CFFAF4BB0F11F460FF1BC06F5F7F4F5A
:100C40008F4F9F4F16C0882311F096E911C077236C
:100C500021F09EE8872F762F05C0662371F096E875
:100C6000862F70E060E02AF09A95660F771F881F44
:100C7000DAF7880F9695879597F9089597F99F6702
:100C800080E870E060E008959FEF80EC0895002414
:100C90000A941616170618060906089500240A94E1
:100CA00012161306140605060895092E0394000C67
:100CB00011F4882352F0BB0F40F4BF2B11F460FFF6
:100CC00004C06F5F7F4F8F4F9F4F089557FD90581F
:100CD000440F551F59F05F3F71F04795880F97FB00
:100CE000991F61F09F3F79F08795089512161306BA
:100CF0001406551FF2CF4695F1DF08C016161706E9
:100D00001806991FF1CF869571056105089408951D
:100D1000E894BB2766277727CB0197F908950E94AF
:100D2000A2060C9455060E94470638F00E944E0613
:100D300020F0952311F00C943E060C9444061124E7
:100D40000C9489060E94660670F3959FC1F3950F77
:100D500050E0551F629FF001729FBB27F00DB11D3F
:100D6000639FAA27F00DB11DAA1F649F6627B00DCF
:100D7000A11D661F829F2227B00DA11D621F739FB8
:100D8000B00DA11D621F839FA00D611D221F749FC6
:100D90003327A00D611D231F849F600D211D822F0D
:100DA000762F6A2F11249F5750409AF0F1F0882334
:100DB0004AF0EE0FFF1FBB1F661F771F881F915061
:100DC0005040A9F79E3F510580F00C943E060C94CC
:100DD00089065F3FE4F3983ED4F38695779567954F
:100DE000B795F795E7959F5FC1F7FE2B880F911D8B
:100DF0009695879597F90895EE0FFF1F0590F4914A
:080E0000E02D0994F894FFCFE6
:100E080000000000BB01B001CC018601A9019601D8
:020E1800870150
:00000001FF
