:020000040000FA
:100000000C9462000C948A000C948A000C948A0070
:100010000C948A000C948A000C948A000C948A0038
:100020000C948A000C948A000C948A000C948A0028
:100030000C948A000C948A000C948A000C948A0018
:100040000C949E020C948A000C948A000C948A00F2
:100050000C948A000C948A000C948A000C948A00F8
:100060000C94E8020C948A00000000002300260093
:10007000290000000008000201000003040700003E
:1000800000000000000000000000250028002B00F8
:1000900000000000240027002A00040404040404D3
:1000A0000404020202020202030303030303010227
:1000B00004081020408001020408102001020408F6
:1000C00010204C0411241FBECFEFD8E0DEBFCDBFFF
:1000D00011E0A0E0B1E0EEE3FEE002C005900D9279
:1000E000A231B107D9F721E0A2E1B1E001C01D9230
:1000F000A93CB207E1F710E0C2E6D0E004C02197C6
:10010000FE010E941707C136D107C9F70E94690492
:100110000C941D070C940000CF93DF9390E0FC013A
:10012000E255FF4F249186569F4FFC01849188230E
:10013000C1F090E0880F991FFC01E057FF4FC59177
:10014000D491FC01EA57FF4FA591B4919FB7F89461
:100150003881822F809583238883EC91E22BEC9366
:100160009FBFDF91CF910895E091B701F091B80161
:10017000309729F01092B4011092B30109940895B8
:100180000895833081F028F4813099F08230A9F00D
:1001900008958730A9F08830C9F08430B1F4809197
:1001A00080008F7D03C0809180008F7780938000D6
:1001B000089584B58F7784BD089584B58F7DFBCF76
:1001C0008091B0008F778093B00008958091B00047
:1001D0008F7DF9CFCF93DF93282F30E0F901EE58D0
:1001E000FF4F8491F901E255FF4FD491F901E65692
:1001F000FF4FC491CC23A1F081110E94C100EC2FCC
:10020000F0E0EE0FFF1FE859FF4FA591B491EC917C
:10021000ED2381E090E009F480E0DF91CF91089533
:1002200080E090E0FACF1F93CF93DF93282F30E048
:10023000F901EE58FF4F8491F901E255FF4FD49137
:10024000F901E656FF4FC491CC23A9F0162F811176
:100250000E94C100EC2FF0E0EE0FFF1FEA57FF4FA6
:10026000A591B4918FB7F894EC91111108C0D09575
:10027000DE23DC938FBFDF91CF911F910895DE2B9A
:10028000F8CF20915C01260F3327331F213231052F
:10029000ECF420918001FC0190E080E0243069F0D2
:1002A00082E00895A0915C012191AC01445C5E4F15
:1002B000A40FB52FB11D2C930196861798F380914A
:1002C0005C01680F60935C0180E0089581E008950F
:1002D0001092800181E0809382011092810161E09F
:1002E00082E10E94130161E083E10E941301E9EBC6
:1002F000F0E080818E7F808380818D7F808388E4A1
:100300008093B80085E48093BC0008950895E0913F
:10031000B6018091B501E81730F4F0E0EA5EFE4FD7
:10032000808190E008958FEF9FEF08959091B6013E
:100330008091B5012FEF3FEF981748F4E92FF0E0D7
:10034000EA5EFE4F208130E09F5F9093B601C901C5
:1003500008958091B5019091B601891B990B08957C
:10036000CF93DF93CB01EA01642F0E944101CE01BC
:10037000DF91CF910895CF93DF931F92CDB7DEB772
:10038000698361E0CE0101960E94410181E090E025
:100390000F90DF91CF91089590E080E00895CF9382
:1003A000DF9385ED8093BC008091380190913901F5
:1003B000A0913A01B0913B010796A11DB11D23E028
:1003C000B695A795979587952A95D1F72091BC006A
:1003D00024FD03C01092800136C040913801509135
:1003E000390160913A0170913B01452B462B472B17
:1003F00069F30097A105B10541F025E32A95F1F7CE
:1004000000000197A109B109E1CF8091370191E086
:10041000909336018823B9F0C091B800D091BA000A
:100420008091BC008A7B8093BC0060E082E10E94E6
:10043000130160E083E10E9413010E946801D093E0
:10044000BA00C093B800DF91CF910895CF92DF92A8
:10045000EF92FF920F931F93E3EBF0E06491EFE9CB
:10046000F0E0E491F0E0EE0FFF1FE859FF4F8591B7
:10047000949100E412E42FE030E0462F0E9407043C
:10048000611571058105910529F06F5F7F4F8F4FD1
:100490009F4F9F700E94F3059B01AC0169EF7FE0C5
:1004A00089EC90E40E944B052091C5013091C60172
:1004B0004091C7015091C8010E9486066B017C01E2
:1004C00020E030E0A9010E94810620E030E040E019
:1004D0005FE387FD2EC0C701B6010E94DF040E94C2
:1004E000BD056093120184E00E94EA00892B19F097
:1004F0008FE48093130186E00E94EA00892B19F0B3
:1005000081E58093140187E00E94EA00892B19F0AD
:1005100083E58093150144E050E062E171E089EBEE
:1005200091E01F910F91FF90EF90DF90CF900C948E
:10053000B001C701B6010E94DE04D1CF1F920F9215
:100540000FB60F9211242F933F938F939F93AF93E6
:10055000BF938091AB019091AC01A091AD01B0919E
:10056000AE013091AA0123E0230F2D3758F50196F3
:10057000A11DB11D2093AA018093AB019093AC0102
:10058000A093AD01B093AE018091A6019091A70117
:10059000A091A801B091A9010196A11DB11D809360
:1005A000A6019093A701A093A801B093A901BF91C0
:1005B000AF919F918F913F912F910F900FBE0F9010
:1005C0001F90189526E8230F0296A11DB11DD2CFCA
:1005D0001F920F920FB60F9211242F933F934F93B8
:1005E0005F936F937F938F939F93AF93BF93EF939B
:1005F000FF938091B900887F803609F44AC0F0F5F6
:10060000883209F4A7C018F5803109F49BC0B8F40A
:10061000882309F4F9C0883009F494C0FF91EF9160
:10062000BF91AF919F918F917F916F915F914F910A
:100630003F912F910F900FBE0F901F90189588310A
:1006400009F488C0803251F780937F0114C0803450
:1006500009F49DC040F48033B9F38833F9F68093F0
:100660007F0185ECB0C0803509F485C0883509F478
:1006700096C0883499F60E94CF01D0CF883909F40A
:100680008CC038F5883729F050F4883611F080375F
:1006900029F683E08093800110927E0157C088384C
:1006A00009F47BC0803919F0803809F0B7CF809108
:1006B0007E01803208F071C0E0917E0181E08E0FF2
:1006C00080937E018091BB00F0E0E25AFE4F808370
:1006D0003DC0803B39F0E0F4803A09F479C0883AB3
:1006E00009F09CCF84E08093800110925D0110920C
:1006F0005C01E091B101F091B201099580915C013A
:1007000081110FC081E080935C0110923C0109C00F
:10071000803C09F4A6CF883C09F4A3CF883B09F0BC
:100720007DCFE0915D0181E08E0F80935D01F0E06F
:10073000E45CFE4F80818093BB0090915D018091CD
:100740005C0129C08091A5018093BB0085EC80935A
:10075000BC0064CF9091A4018091A301981758F533
:10076000E091A40181E08E0F8093A401F0E0ED57A9
:10077000FE4F8081E9CFE091A40181E08E0F80934C
:10078000A4018091BB00F0E0ED57FE4F8083909173
:10079000A4018091A3019817C8F285E8D8CFE09111
:1007A000A40181E08E0F8093A4018091BB00F0E052
:1007B000ED57FE4F80838091820181115CCF81E0F3
:1007C0008093810184EA8093BC001092800126CF3F
:1007D00085EC8093BC001092800180917E01803274
:1007E00030F4E0917E01F0E0E25AFE4F1082609119
:1007F0007E0170E0E091AF01F091B0018EE591E0F3
:10080000099510927E010ACF10927F0134CFCF92CA
:10081000DF92EF92FF920F931F93E82FF92F05C0FD
:10082000015011092109310961F190819623941732
:10083000B9F305C0015011092109310911F1908165
:1008400096239413F7CFC12CD12CE12CF12C0AC0A4
:100850008FEFC81AD80AE80AF80A0C151D052E05EC
:100860003F0579F080818623841791F36C2D7D2DCF
:100870008E2D9F2D1F910F91FF90EF90DF90CF90C5
:10088000089560E070E080E090E01F910F91FF908C
:10089000EF90DF90CF900895E9EBF1E013821282A0
:1008A00088EE93E0A0E0B0E084839583A683B783CD
:1008B00084E091E0918380838AE49CE0A2E0BEE33F
:1008C0008093C5019093C601A093C701B093C8015E
:1008D0000895789484B5826084BD84B5816084BDB8
:1008E00085B5826085BD85B5816085BD80916E00CE
:1008F000816080936E0010928100809181008260FF
:10090000809381008091810081608093810080913B
:1009100080008160809380008091B100846080932A
:10092000B1008091B00081608093B00080917A0026
:10093000846080937A0080917A00826080937A004C
:1009400080917A00816080937A0080917A0080683B
:1009500080937A001092C1001092B6011092B501F6
:100960001092B4011092B3010E94680184EB90E0F0
:100970009093B2018093B10180EC90E09093B0012C
:100980008093AF0180E28093BA0084E00E948C00E3
:1009900085E00E948C0086E00E948C0087E00E9427
:1009A0008C0086E292E09093B8018093B701C0E09A
:1009B000D0E02097F1F30E940000FBCF5058BB27F6
:1009C000AA270E94F6040C9447060E94390638F0C4
:1009D0000E94400620F039F49F3F19F426F40C944D
:1009E00036060EF4E095E7FB0C943006E92F0E94E2
:1009F000580658F3BA17620773078407950720F063
:100A000079F4A6F50C947A060EF4E0950B2EBA2F25
:100A1000A02D0B01B90190010C01CA01A001112404
:100A2000FF27591B99F0593F50F4503E68F11A16B0
:100A3000F040A22F232F342F4427585FF3CF469541
:100A400037952795A795F0405395C9F77EF41F1663
:100A5000BA0B620B730B840BBAF09150A1F0FF0F2D
:100A6000BB1F661F771F881FC2F70EC0BA0F621F19
:100A7000731F841F48F4879577956795B795F79509
:100A80009E3F08F0B0CF9395880F08F09927EE0F9E
:100A90009795879508950E945F050C9447060E94DC
:100AA000400658F00E94390640F029F45F3F29F0D3
:100AB0000C94300651110C947B060C9436060E945F
:100AC000580668F39923B1F3552391F3951B550B01
:100AD000BB27AA2762177307840738F09F5F5F4F11
:100AE000220F331F441FAA1FA9F335D00E2E3AF050
:100AF000E0E832D091505040E695001CCAF72BD068
:100B0000FE2F29D0660F771F881FBB1F26173707B8
:100B10004807AB07B0E809F0BB0B802DBF01FF27EA
:100B200093585F4F3AF09E3F510578F00C94300691
:100B30000C947B065F3FE4F3983ED4F3869577955B
:100B40006795B795F7959F5FC9F7880F911D9695A3
:100B5000879597F90895E1E0660F771F881FBB1FFF
:100B6000621773078407BA0720F0621B730B840BAC
:100B7000BA0BEE1F88F7E09508950E94C4056894AB
:100B8000B1110C947B0608950E94600688F09F576F
:100B900098F0B92F9927B751B0F0E1F0660F771FA1
:100BA000881F991F1AF0BA95C9F714C0B13091F097
:100BB0000E947A06B1E008950C947A06672F782F88
:100BC0008827B85F39F0B93FCCF38695779567955C
:100BD000B395D9F73EF490958095709561957F4FC8
:100BE0008F4F9F4F0895E89409C097FB3EF490956E
:100BF0008095709561957F4F8F4F9F4F9923A9F0F6
:100C0000F92F96E9BB279395F69587957795679584
:100C1000B795F111F8CFFAF4BB0F11F460FF1BC0C8
:100C20006F5F7F4F8F4F9F4F16C0882311F096E95B
:100C300011C0772321F09EE8872F762F05C0662309
:100C400071F096E8862F70E060E02AF09A95660FC2
:100C5000771F881FDAF7880F9695879597F908957B
:100C600097F99F6780E870E060E008959FEF80EC5F
:100C7000089500240A941616170618060906089502
:100C800000240A9412161306140605060895092E68
:100C90000394000C11F4882352F0BB0F40F4BF2BD7
:100CA00011F460FF04C06F5F7F4F8F4F9F4F089517
:100CB00057FD9058440F551F59F05F3F71F047950D
:100CC000880F97FB991F61F09F3F79F087950895F2
:100CD000121613061406551FF2CF4695F1DF08C011
:100CE000161617061806991FF1CF8695710561052E
:100CF00008940895E894BB2766277727CB0197F9D6
:100D000008950E94F30608F48FEF08950E94990653
:100D10000C9447060E94390638F00E94400620F0E5
:100D2000952311F00C9430060C94360611240C9483
:100D30007B060E94580670F3959FC1F3950F50E013
:100D4000551F629FF001729FBB27F00DB11D639F7D
:100D5000AA27F00DB11DAA1F649F6627B00DA11D23
:100D6000661F829F2227B00DA11D621F739FB00DC9
:100D7000A11D621F839FA00D611D221F749F332739
:100D8000A00D611D231F849F600D211D822F762FD2
:100D90006A2F11249F5750409AF0F1F088234AF0AF
:100DA000EE0FFF1FBB1F661F771F881F915050401B
:100DB000A9F79E3F510580F00C9430060C947B06F9
:100DC0005F3FE4F3983ED4F3869577956795B795A2
:100DD000F795E7959F5FC1F7FE2B880F911D9695BC
:100DE000879597F90895990F0008550FAA0BE0E829
:100DF000FEEF16161706E807F907C0F012161306DD
:100E0000E407F50798F0621B730B840B950B39F41C
:100E10000A2661F0232B242B252B21F408950A2682
:100E200009F4A140A6958FEF811D811D0895EE0F55
:100E3000FF1F0590F491E02D0994F894FFCF000076
:100E40000000BB01B001CC018601A9019601870118
:107E0000112484B714BE81FFF0D085E080938100F7
:107E100082E08093C00088E18093C10086E0809377
:107E2000C20080E18093C4008EE0C9D0259A86E02C
:107E300020E33CEF91E0309385002093840096BBD3
:107E4000B09BFECF1D9AA8958150A9F7CC24DD24C4
:107E500088248394B5E0AB2EA1E19A2EF3E0BF2EE7
:107E6000A2D0813461F49FD0082FAFD0023811F036
:107E7000013811F484E001C083E08DD089C08234E0
:107E800011F484E103C0853419F485E0A6D080C0E4
:107E9000853579F488D0E82EFF2485D0082F10E0AE
:107EA000102F00270E291F29000F111F8ED06801E7
:107EB0006FC0863521F484E090D080E0DECF843638
:107EC00009F040C070D06FD0082F6DD080E0C81688
:107ED00080E7D80618F4F601B7BEE895C0E0D1E017
:107EE00062D089930C17E1F7F0E0CF16F0E7DF06D8
:107EF00018F0F601B7BEE89568D007B600FCFDCFD4
:107F0000A601A0E0B1E02C9130E011968C91119780
:107F100090E0982F8827822B932B1296FA010C0160
:107F200087BEE89511244E5F5F4FF1E0A038BF0790
:107F300051F7F601A7BEE89507B600FCFDCF97BE46
:107F4000E89526C08437B1F42ED02DD0F82E2BD052
:107F50003CD0F601EF2C8F010F5F1F4F84911BD097
:107F6000EA94F801C1F70894C11CD11CFA94CF0C13
:107F7000D11C0EC0853739F428D08EE10CD085E9AC
:107F80000AD08FE07ACF813511F488E018D01DD067
:107F900080E101D065CF982F8091C00085FFFCCF94
:107FA0009093C60008958091C00087FFFCCF809118
:107FB000C00084FD01C0A8958091C6000895E0E648
:107FC000F0E098E1908380830895EDDF803219F02E
:107FD00088E0F5DFFFCF84E1DECF1F93182FE3DFCA
:107FE0001150E9F7F2DF1F91089580E0E8DFEE27F6
:047FF000FF270994CA
:027FFE00040479
:00000001FF
